{
  "_format": "hh-sol-artifact-1",
  "contractName": "EternalNFT",
  "sourceName": "contracts/EternalNFT.sol",
  "abi": [
    {
      "inputs": [],
      "stateMutability": "nonpayable",
      "type": "constructor"
    },
    {
      "anonymous": false,
      "inputs": [
        {
          "indexed": true,
          "internalType": "address",
          "name": "owner",
          "type": "address"
        },
        {
          "indexed": true,
          "internalType": "address",
          "name": "approved",
          "type": "address"
        },
        {
          "indexed": true,
          "internalType": "uint256",
          "name": "tokenId",
          "type": "uint256"
        }
      ],
      "name": "Approval",
      "type": "event"
    },
    {
      "anonymous": false,
      "inputs": [
        {
          "indexed": true,
          "internalType": "address",
          "name": "owner",
          "type": "address"
        },
        {
          "indexed": true,
          "internalType": "address",
          "name": "operator",
          "type": "address"
        },
        {
          "indexed": false,
          "internalType": "bool",
          "name": "approved",
          "type": "bool"
        }
      ],
      "name": "ApprovalForAll",
      "type": "event"
    },
    {
      "anonymous": false,
      "inputs": [
        {
          "indexed": false,
          "internalType": "uint256",
          "name": "_fromTokenId",
          "type": "uint256"
        },
        {
          "indexed": false,
          "internalType": "uint256",
          "name": "_toTokenId",
          "type": "uint256"
        }
      ],
      "name": "BatchMetadataUpdate",
      "type": "event"
    },
    {
      "anonymous": false,
      "inputs": [
        {
          "indexed": false,
          "internalType": "uint256",
          "name": "_tokenId",
          "type": "uint256"
        }
      ],
      "name": "MetadataUpdate",
      "type": "event"
    },
    {
      "anonymous": false,
      "inputs": [
        {
          "indexed": true,
          "internalType": "address",
          "name": "from",
          "type": "address"
        },
        {
          "indexed": true,
          "internalType": "address",
          "name": "to",
          "type": "address"
        },
        {
          "indexed": true,
          "internalType": "uint256",
          "name": "tokenId",
          "type": "uint256"
        }
      ],
      "name": "Transfer",
      "type": "event"
    },
    {
      "inputs": [
        {
          "internalType": "address",
          "name": "to",
          "type": "address"
        },
        {
          "internalType": "uint256",
          "name": "tokenId",
          "type": "uint256"
        }
      ],
      "name": "approve",
      "outputs": [],
      "stateMutability": "nonpayable",
      "type": "function"
    },
    {
      "inputs": [
        {
          "internalType": "address",
          "name": "owner",
          "type": "address"
        }
      ],
      "name": "balanceOf",
      "outputs": [
        {
          "internalType": "uint256",
          "name": "",
          "type": "uint256"
        }
      ],
      "stateMutability": "view",
      "type": "function"
    },
    {
      "inputs": [],
      "name": "collectionName",
      "outputs": [
        {
          "internalType": "string",
          "name": "",
          "type": "string"
        }
      ],
      "stateMutability": "view",
      "type": "function"
    },
    {
      "inputs": [],
      "name": "collectionSymbol",
      "outputs": [
        {
          "internalType": "string",
          "name": "",
          "type": "string"
        }
      ],
      "stateMutability": "view",
      "type": "function"
    },
    {
      "inputs": [],
      "name": "createEternalNFT",
      "outputs": [
        {
          "internalType": "uint256",
          "name": "",
          "type": "uint256"
        }
      ],
      "stateMutability": "nonpayable",
      "type": "function"
    },
    {
      "inputs": [
        {
          "internalType": "uint256",
          "name": "tokenId",
          "type": "uint256"
        }
      ],
      "name": "getApproved",
      "outputs": [
        {
          "internalType": "address",
          "name": "",
          "type": "address"
        }
      ],
      "stateMutability": "view",
      "type": "function"
    },
    {
      "inputs": [
        {
          "internalType": "address",
          "name": "owner",
          "type": "address"
        },
        {
          "internalType": "address",
          "name": "operator",
          "type": "address"
        }
      ],
      "name": "isApprovedForAll",
      "outputs": [
        {
          "internalType": "bool",
          "name": "",
          "type": "bool"
        }
      ],
      "stateMutability": "view",
      "type": "function"
    },
    {
      "inputs": [],
      "name": "name",
      "outputs": [
        {
          "internalType": "string",
          "name": "",
          "type": "string"
        }
      ],
      "stateMutability": "view",
      "type": "function"
    },
    {
      "inputs": [
        {
          "internalType": "uint256",
          "name": "tokenId",
          "type": "uint256"
        }
      ],
      "name": "ownerOf",
      "outputs": [
        {
          "internalType": "address",
          "name": "",
          "type": "address"
        }
      ],
      "stateMutability": "view",
      "type": "function"
    },
    {
      "inputs": [
        {
          "internalType": "uint256",
          "name": "_tokenId",
          "type": "uint256"
        }
      ],
      "name": "pickFirstWord",
      "outputs": [
        {
          "internalType": "string",
          "name": "",
          "type": "string"
        }
      ],
      "stateMutability": "view",
      "type": "function"
    },
    {
      "inputs": [
        {
          "internalType": "uint256",
          "name": "_tokenId",
          "type": "uint256"
        }
      ],
      "name": "pickSecondWord",
      "outputs": [
        {
          "internalType": "string",
          "name": "",
          "type": "string"
        }
      ],
      "stateMutability": "view",
      "type": "function"
    },
    {
      "inputs": [
        {
          "internalType": "uint256",
          "name": "_tokenId",
          "type": "uint256"
        }
      ],
      "name": "pickThirdWord",
      "outputs": [
        {
          "internalType": "string",
          "name": "",
          "type": "string"
        }
      ],
      "stateMutability": "view",
      "type": "function"
    },
    {
      "inputs": [
        {
          "internalType": "address",
          "name": "from",
          "type": "address"
        },
        {
          "internalType": "address",
          "name": "to",
          "type": "address"
        },
        {
          "internalType": "uint256",
          "name": "tokenId",
          "type": "uint256"
        }
      ],
      "name": "safeTransferFrom",
      "outputs": [],
      "stateMutability": "nonpayable",
      "type": "function"
    },
    {
      "inputs": [
        {
          "internalType": "address",
          "name": "from",
          "type": "address"
        },
        {
          "internalType": "address",
          "name": "to",
          "type": "address"
        },
        {
          "internalType": "uint256",
          "name": "tokenId",
          "type": "uint256"
        },
        {
          "internalType": "bytes",
          "name": "data",
          "type": "bytes"
        }
      ],
      "name": "safeTransferFrom",
      "outputs": [],
      "stateMutability": "nonpayable",
      "type": "function"
    },
    {
      "inputs": [
        {
          "internalType": "address",
          "name": "operator",
          "type": "address"
        },
        {
          "internalType": "bool",
          "name": "approved",
          "type": "bool"
        }
      ],
      "name": "setApprovalForAll",
      "outputs": [],
      "stateMutability": "nonpayable",
      "type": "function"
    },
    {
      "inputs": [
        {
          "internalType": "bytes4",
          "name": "interfaceId",
          "type": "bytes4"
        }
      ],
      "name": "supportsInterface",
      "outputs": [
        {
          "internalType": "bool",
          "name": "",
          "type": "bool"
        }
      ],
      "stateMutability": "view",
      "type": "function"
    },
    {
      "inputs": [],
      "name": "symbol",
      "outputs": [
        {
          "internalType": "string",
          "name": "",
          "type": "string"
        }
      ],
      "stateMutability": "view",
      "type": "function"
    },
    {
      "inputs": [
        {
          "internalType": "uint256",
          "name": "tokenId",
          "type": "uint256"
        }
      ],
      "name": "tokenURI",
      "outputs": [
        {
          "internalType": "string",
          "name": "",
          "type": "string"
        }
      ],
      "stateMutability": "view",
      "type": "function"
    },
    {
      "inputs": [
        {
          "internalType": "address",
          "name": "from",
          "type": "address"
        },
        {
          "internalType": "address",
          "name": "to",
          "type": "address"
        },
        {
          "internalType": "uint256",
          "name": "tokenId",
          "type": "uint256"
        }
      ],
      "name": "transferFrom",
      "outputs": [],
      "stateMutability": "nonpayable",
      "type": "function"
    }
  ],
  "bytecode": "0x6004610160818152634669726560e01b6101805260809081526101a08281526315da5b9960e21b6101c05260a0526101e0828152635761766560e01b6102005260c05260056102208181526408ac2e4e8d60db1b6102405260e0526007610260818152662a343ab73232b960c91b61028052610100526102a091825264537061636560d81b6102c052610120919091526103206040526102e09283526354696d6560e01b6103005261014092909252620000bd91600a91906200041c565b506040518060e001604052806040518060400160405280600581526020016414dddbdc9960da1b81525081526020016040518060400160405280600581526020016429b832b0b960d91b81525081526020016040518060400160405280600681526020016514da1a595b1960d21b8152508152602001604051806040016040528060068152602001652430b6b6b2b960d11b81525081526020016040518060400160405280600581526020016429b0b132b960d91b81525081526020016040518060400160405280600381526020016241786560e81b815250815260200160405180604001604052806003815260200162426f7760e81b815250815250600b906007620001cc9291906200041c565b506040805161012081018252600460e0820181815263131bdc9960e21b610100840152825282518084018452908152634b696e6760e01b602082810191909152808301919091528251808401845260078082526622b6b832b937b960c91b828401528385019190915283518085018552600981526856656e657261626c6560b81b81840152606084015283518085018552600881526720b731b2b9ba37b960c11b81840152608084015283518085018552600581526414d85a5b9d60da1b8184015260a08401528351808501909452600384526211dbd960ea1b9184019190915260c0820192909252620002c491600c91906200041c565b50348015620002d257600080fd5b506040518060400160405280600a815260200169115d195c9b985b13919560b21b815250604051806040016040528060048152602001631153919560e21b815250816000908162000324919062000598565b50600162000333828262000598565b506200034191505062000371565b60089062000350908262000598565b506200035b6200040b565b6009906200036a908262000598565b5062000664565b606060008054620003829062000509565b80601f0160208091040260200160405190810160405280929190818152602001828054620003b09062000509565b8015620004015780601f10620003d55761010080835404028352916020019162000401565b820191906000526020600020905b815481529060010190602001808311620003e357829003601f168201915b5050505050905090565b606060018054620003829062000509565b82805482825590600052602060002090810192821562000467579160200282015b8281111562000467578251829062000456908262000598565b50916020019190600101906200043d565b506200047592915062000479565b5090565b80821115620004755760006200049082826200049a565b5060010162000479565b508054620004a89062000509565b6000825580601f10620004b9575050565b601f016020900490600052602060002090810190620004d99190620004dc565b50565b5b80821115620004755760008155600101620004dd565b634e487b7160e01b600052604160045260246000fd5b600181811c908216806200051e57607f821691505b6020821081036200053f57634e487b7160e01b600052602260045260246000fd5b50919050565b601f8211156200059357600081815260208120601f850160051c810160208610156200056e5750805b601f850160051c820191505b818110156200058f578281556001016200057a565b5050505b505050565b81516001600160401b03811115620005b457620005b4620004f3565b620005cc81620005c5845462000509565b8462000545565b602080601f831160018114620006045760008415620005eb5750858301515b600019600386901b1c1916600185901b1785556200058f565b600085815260208120601f198616915b82811015620006355788860151825594840194600190910190840162000614565b5085821015620006545787850151600019600388901b60f8161c191681555b5050505050600190811b01905550565b611f5580620006746000396000f3fe608060405234801561001057600080fd5b50600436106101215760003560e01c80636352211e116100ad578063c630338611610071578063c63033861461024e578063c87b56dd14610261578063e2d2c30814610274578063e5326ab114610287578063e985e9c51461028f57600080fd5b80636352211e146101fa57806370a082311461020d57806395d89b4114610220578063a22cb46514610228578063b88d4fde1461023b57600080fd5b806323b872dd116100f457806323b872dd146101a35780632f39352a146101b65780633330880e146101be5780633bad0d36146101d457806342842e0e146101e757600080fd5b806301ffc9a71461012657806306fdde031461014e578063081812fc14610163578063095ea7b31461018e575b600080fd5b610139610134366004611559565b6102a2565b60405190151581526020015b60405180910390f35b6101566102cd565b60405161014591906115c6565b6101766101713660046115d9565b61035f565b6040516001600160a01b039091168152602001610145565b6101a161019c36600461160e565b610386565b005b6101a16101b1366004611638565b6104a0565b6101566104d1565b6101c661055f565b604051908152602001610145565b6101566101e23660046115d9565b610686565b6101a16101f5366004611638565b61077a565b6101766102083660046115d9565b610795565b6101c661021b366004611674565b6107f5565b61015661087b565b6101a161023636600461168f565b61088a565b6101a16102493660046116e1565b610899565b61015661025c3660046115d9565b6108d1565b61015661026f3660046115d9565b610916565b6101566102823660046115d9565b610a26565b610156610a6b565b61013961029d3660046117bd565b610a78565b60006001600160e01b03198216632483248360e11b14806102c757506102c782610aa6565b92915050565b6060600080546102dc906117f0565b80601f0160208091040260200160405190810160405280929190818152602001828054610308906117f0565b80156103555780601f1061032a57610100808354040283529160200191610355565b820191906000526020600020905b81548152906001019060200180831161033857829003601f168201915b5050505050905090565b600061036a82610af6565b506000908152600460205260409020546001600160a01b031690565b600061039182610795565b9050806001600160a01b0316836001600160a01b0316036104035760405162461bcd60e51b815260206004820152602160248201527f4552433732313a20617070726f76616c20746f2063757272656e74206f776e656044820152603960f91b60648201526084015b60405180910390fd5b336001600160a01b038216148061041f575061041f8133610a78565b6104915760405162461bcd60e51b815260206004820152603d60248201527f4552433732313a20617070726f76652063616c6c6572206973206e6f7420746f60448201527f6b656e206f776e6572206f7220617070726f76656420666f7220616c6c00000060648201526084016103fa565b61049b8383610b58565b505050565b6104aa3382610bc6565b6104c65760405162461bcd60e51b81526004016103fa9061182a565b61049b838383610c24565b600980546104de906117f0565b80601f016020809104026020016040519081016040528092919081815260200182805461050a906117f0565b80156105575780601f1061052c57610100808354040283529160200191610557565b820191906000526020600020905b81548152906001019060200180831161053a57829003601f168201915b505050505081565b600061056f600780546001019055565b600061057a60075490565b9050600061058782610686565b90506000610594836108d1565b905060006105a184610a26565b905060008383836040516020016105ba93929190611877565b60408051601f19818403018152610160830190915261012f80835290925060009190611db160208301398585856040516020016105fa94939291906118ba565b6040516020818303038152906040529050600061063f8361061a84610d88565b60405160200161062b929190611929565b604051602081830303815290604052610d88565b90506000816040516020016106549190611a04565b604051602081830303815290604052905061066f3389610edb565b6106798882611066565b5095979650505050505050565b606060006106ba61069684611131565b6040516020016106a69190611a49565b6040516020818303038152906040526111c4565b600a549091506106ca9082611a8e565b9050600a81815481106106df576106df611aa2565b9060005260206000200180546106f4906117f0565b80601f0160208091040260200160405190810160405280929190818152602001828054610720906117f0565b801561076d5780601f106107425761010080835404028352916020019161076d565b820191906000526020600020905b81548152906001019060200180831161075057829003601f168201915b5050505050915050919050565b61049b83838360405180602001604052806000815250610899565b6000818152600260205260408120546001600160a01b0316806102c75760405162461bcd60e51b8152602060048201526018602482015277115490cdcc8c4e881a5b9d985b1a59081d1bdad95b88125160421b60448201526064016103fa565b60006001600160a01b03821661085f5760405162461bcd60e51b815260206004820152602960248201527f4552433732313a2061646472657373207a65726f206973206e6f7420612076616044820152683634b21037bbb732b960b91b60648201526084016103fa565b506001600160a01b031660009081526003602052604090205490565b6060600180546102dc906117f0565b6108953383836111f5565b5050565b6108a33383610bc6565b6108bf5760405162461bcd60e51b81526004016103fa9061182a565b6108cb848484846112c3565b50505050565b606060006108f16108e184611131565b6040516020016106a69190611ab8565b600b549091506109019082611a8e565b9050600b81815481106106df576106df611aa2565b606061092182610af6565b6000828152600660205260408120805461093a906117f0565b80601f0160208091040260200160405190810160405280929190818152602001828054610966906117f0565b80156109b35780601f10610988576101008083540402835291602001916109b3565b820191906000526020600020905b81548152906001019060200180831161099657829003601f168201915b5050505050905060006109d160408051602081019091526000815290565b905080516000036109e3575092915050565b815115610a155780826040516020016109fd929190611ae6565b60405160208183030381529060405292505050919050565b610a1e846112f6565b949350505050565b60606000610a46610a3684611131565b6040516020016106a69190611b15565b600c54909150610a569082611a8e565b9050600c81815481106106df576106df611aa2565b600880546104de906117f0565b6001600160a01b03918216600090815260056020908152604080832093909416825291909152205460ff1690565b60006001600160e01b031982166380ac58cd60e01b1480610ad757506001600160e01b03198216635b5e139f60e01b145b806102c757506301ffc9a760e01b6001600160e01b03198316146102c7565b6000818152600260205260409020546001600160a01b0316610b555760405162461bcd60e51b8152602060048201526018602482015277115490cdcc8c4e881a5b9d985b1a59081d1bdad95b88125160421b60448201526064016103fa565b50565b600081815260046020526040902080546001600160a01b0319166001600160a01b0384169081179091558190610b8d82610795565b6001600160a01b03167f8c5be1e5ebec7d5bd14f71427d1e84f3dd0314c0f7b2291e5b200ac8c7c3b92560405160405180910390a45050565b600080610bd283610795565b9050806001600160a01b0316846001600160a01b03161480610bf95750610bf98185610a78565b80610a1e5750836001600160a01b0316610c128461035f565b6001600160a01b031614949350505050565b826001600160a01b0316610c3782610795565b6001600160a01b031614610c5d5760405162461bcd60e51b81526004016103fa90611b41565b6001600160a01b038216610cbf5760405162461bcd60e51b8152602060048201526024808201527f4552433732313a207472616e7366657220746f20746865207a65726f206164646044820152637265737360e01b60648201526084016103fa565b826001600160a01b0316610cd282610795565b6001600160a01b031614610cf85760405162461bcd60e51b81526004016103fa90611b41565b600081815260046020908152604080832080546001600160a01b03199081169091556001600160a01b0387811680865260038552838620805460001901905590871680865283862080546001019055868652600290945282852080549092168417909155905184937fddf252ad1be2c89b69c2b068fc378daa952ba7f163c4a11628f55a4df523b3ef91a4505050565b60608151600003610da757505060408051602081019091526000815290565b6000604051806060016040528060408152602001611ee06040913990506000600384516002610dd69190611b9c565b610de09190611baf565b610deb906004611bc3565b67ffffffffffffffff811115610e0357610e036116cb565b6040519080825280601f01601f191660200182016040528015610e2d576020820181803683370190505b509050600182016020820185865187015b80821015610e99576003820191508151603f8160121c168501518453600184019350603f81600c1c168501518453600184019350603f8160061c168501518453600184019350603f8116850151845350600183019250610e3e565b5050600386510660018114610eb55760028114610ec857610ed0565b603d6001830353603d6002830353610ed0565b603d60018303535b509195945050505050565b6001600160a01b038216610f315760405162461bcd60e51b815260206004820181905260248201527f4552433732313a206d696e7420746f20746865207a65726f206164647265737360448201526064016103fa565b6000818152600260205260409020546001600160a01b031615610f965760405162461bcd60e51b815260206004820152601c60248201527f4552433732313a20746f6b656e20616c7265616479206d696e7465640000000060448201526064016103fa565b6000818152600260205260409020546001600160a01b031615610ffb5760405162461bcd60e51b815260206004820152601c60248201527f4552433732313a20746f6b656e20616c7265616479206d696e7465640000000060448201526064016103fa565b6001600160a01b038216600081815260036020908152604080832080546001019055848352600290915280822080546001600160a01b0319168417905551839291907fddf252ad1be2c89b69c2b068fc378daa952ba7f163c4a11628f55a4df523b3ef908290a45050565b6000828152600260205260409020546001600160a01b03166110e15760405162461bcd60e51b815260206004820152602e60248201527f45524337323155524953746f726167653a2055524920736574206f66206e6f6e60448201526d32bc34b9ba32b73a103a37b5b2b760911b60648201526084016103fa565b60008281526006602052604090206110f98282611c28565b506040518281527ff8e1a15aba9398e019f0b49df1a4fde98ee17ae345cb5f6b5e2c27f5033e8ce79060200160405180910390a15050565b6060600061113e8361136a565b600101905060008167ffffffffffffffff81111561115e5761115e6116cb565b6040519080825280601f01601f191660200182016040528015611188576020820181803683370190505b5090508181016020015b600019016f181899199a1a9b1b9c1cb0b131b232b360811b600a86061a8153600a850494508461119257509392505050565b6000816040516020016111d79190611ce8565b60408051601f19818403018152919052805160209091012092915050565b816001600160a01b0316836001600160a01b0316036112565760405162461bcd60e51b815260206004820152601960248201527f4552433732313a20617070726f766520746f2063616c6c65720000000000000060448201526064016103fa565b6001600160a01b03838116600081815260056020908152604080832094871680845294825291829020805460ff191686151590811790915591519182527f17307eab39ab6107e8899845ad3d59bd9653f200f220920489ca2b5937696c31910160405180910390a3505050565b6112ce848484610c24565b6112da84848484611442565b6108cb5760405162461bcd60e51b81526004016103fa90611d04565b606061130182610af6565b600061131860408051602081019091526000815290565b905060008151116113385760405180602001604052806000815250611363565b8061134284611131565b604051602001611353929190611ae6565b6040516020818303038152906040525b9392505050565b60008072184f03e93ff9f4daa797ed6e38ed64bf6a1f0160401b83106113a95772184f03e93ff9f4daa797ed6e38ed64bf6a1f0160401b830492506040015b6d04ee2d6d415b85acef810000000083106113d5576d04ee2d6d415b85acef8100000000830492506020015b662386f26fc1000083106113f357662386f26fc10000830492506010015b6305f5e100831061140b576305f5e100830492506008015b612710831061141f57612710830492506004015b60648310611431576064830492506002015b600a83106102c75760010192915050565b60006001600160a01b0384163b1561153857604051630a85bd0160e11b81526001600160a01b0385169063150b7a0290611486903390899088908890600401611d56565b6020604051808303816000875af19250505080156114c1575060408051601f3d908101601f191682019092526114be91810190611d93565b60015b61151e573d8080156114ef576040519150601f19603f3d011682016040523d82523d6000602084013e6114f4565b606091505b5080516000036115165760405162461bcd60e51b81526004016103fa90611d04565b805181602001fd5b6001600160e01b031916630a85bd0160e11b149050610a1e565b506001949350505050565b6001600160e01b031981168114610b5557600080fd5b60006020828403121561156b57600080fd5b813561136381611543565b60005b83811015611591578181015183820152602001611579565b50506000910152565b600081518084526115b2816020860160208601611576565b601f01601f19169290920160200192915050565b602081526000611363602083018461159a565b6000602082840312156115eb57600080fd5b5035919050565b80356001600160a01b038116811461160957600080fd5b919050565b6000806040838503121561162157600080fd5b61162a836115f2565b946020939093013593505050565b60008060006060848603121561164d57600080fd5b611656846115f2565b9250611664602085016115f2565b9150604084013590509250925092565b60006020828403121561168657600080fd5b611363826115f2565b600080604083850312156116a257600080fd5b6116ab836115f2565b9150602083013580151581146116c057600080fd5b809150509250929050565b634e487b7160e01b600052604160045260246000fd5b600080600080608085870312156116f757600080fd5b611700856115f2565b935061170e602086016115f2565b925060408501359150606085013567ffffffffffffffff8082111561173257600080fd5b818701915087601f83011261174657600080fd5b813581811115611758576117586116cb565b604051601f8201601f19908116603f01168101908382118183101715611780576117806116cb565b816040528281528a602084870101111561179957600080fd5b82602086016020830137600060208483010152809550505050505092959194509250565b600080604083850312156117d057600080fd5b6117d9836115f2565b91506117e7602084016115f2565b90509250929050565b600181811c9082168061180457607f821691505b60208210810361182457634e487b7160e01b600052602260045260246000fd5b50919050565b6020808252602d908201527f4552433732313a2063616c6c6572206973206e6f7420746f6b656e206f776e6560408201526c1c881bdc88185c1c1c9bdd9959609a1b606082015260800190565b60008451611889818460208901611576565b84519083019061189d818360208901611576565b84519101906118b0818360208801611576565b0195945050505050565b600085516118cc818460208a01611576565b8551908301906118e0818360208a01611576565b85519101906118f3818360208901611576565b8451910190611906818360208801611576565b6c1e17ba32bc3a1f1e17b9bb339f60991b9101908152600d019695505050505050565b693d913730b6b2911d101160b11b8152825160009061194f81600a850160208801611576565b7f222c20226465736372697074696f6e223a20224120686967686c79206163636c600a918401918201527f61696d656420636f6c6c656374696f6e20457465726e616c2057617272696f72602a8201527f73222c2022696d616765223a2022646174613a696d6167652f7376672b786d6c604a820152670ed8985cd94d8d0b60c21b606a82015283516119e9816072840160208801611576565b61227d60f01b60729290910191820152607401949350505050565b7f646174613a6170706c69636174696f6e2f6a736f6e3b6261736536342c000000815260008251611a3c81601d850160208701611576565b91909101601d0192915050565b66195b195b595b9d60ca1b815260008251611a6b816007850160208701611576565b9190910160070192915050565b634e487b7160e01b600052601260045260246000fd5b600082611a9d57611a9d611a78565b500690565b634e487b7160e01b600052603260045260246000fd5b653bb2b0b837b760d11b815260008251611ad9816006850160208701611576565b9190910160060192915050565b60008351611af8818460208801611576565b835190830190611b0c818360208801611576565b01949350505050565b6372616e6b60e01b815260008251611b34816004850160208701611576565b9190910160040192915050565b60208082526025908201527f4552433732313a207472616e736665722066726f6d20696e636f72726563742060408201526437bbb732b960d91b606082015260800190565b634e487b7160e01b600052601160045260246000fd5b808201808211156102c7576102c7611b86565b600082611bbe57611bbe611a78565b500490565b80820281158282048414176102c7576102c7611b86565b601f82111561049b57600081815260208120601f850160051c81016020861015611c015750805b601f850160051c820191505b81811015611c2057828155600101611c0d565b505050505050565b815167ffffffffffffffff811115611c4257611c426116cb565b611c5681611c5084546117f0565b84611bda565b602080601f831160018114611c8b5760008415611c735750858301515b600019600386901b1c1916600185901b178555611c20565b600085815260208120601f198616915b82811015611cba57888601518255948401946001909101908401611c9b565b5085821015611cd85787850151600019600388901b60f8161c191681555b5050505050600190811b01905550565b60008251611cfa818460208701611576565b9190910192915050565b60208082526032908201527f4552433732313a207472616e7366657220746f206e6f6e20455243373231526560408201527131b2b4bb32b91034b6b83632b6b2b73a32b960711b606082015260800190565b6001600160a01b0385811682528416602082015260408101839052608060608201819052600090611d899083018461159a565b9695505050505050565b600060208284031215611da557600080fd5b81516113638161154356fe3c73766720786d6c6e733d27687474703a2f2f7777772e77332e6f72672f323030302f73766727207072657365727665417370656374526174696f3d27784d696e594d696e206d656574272076696577426f783d273020302033353020333530273e3c7374796c653e2e62617365207b2066696c6c3a2077686974653b20666f6e742d66616d696c793a2073657269663b20666f6e742d73697a653a20323470783b207d3c2f7374796c653e3c726563742077696474683d273130302527206865696768743d2731303025272066696c6c3d27626c61636b27202f3e3c7465787420783d273530252720793d273530252720636c6173733d27626173652720646f6d696e616e742d626173656c696e653d276d6964646c652720746578742d616e63686f723d276d6964646c65273e4142434445464748494a4b4c4d4e4f505152535455565758595a6162636465666768696a6b6c6d6e6f707172737475767778797a303132333435363738392b2fa26469706673582212203c24fc53f16f53fe2580a8c24280d46d319813a33f744bc02f7bbba94a284cb364736f6c63430008130033",
  "linkReferences": {},
  "deployedLinkReferences": {}
}